{
  "contractName": "Voting_Contract",
  "abi": [
    {
      "inputs": [
        {
          "internalType": "address",
          "name": "_manager",
          "type": "address"
        },
        {
          "internalType": "string[]",
          "name": "_candidateList",
          "type": "string[]"
        }
      ],
      "payable": false,
      "stateMutability": "nonpayable",
      "type": "constructor"
    },
    {
      "constant": false,
      "inputs": [
        {
          "internalType": "string[]",
          "name": "vote",
          "type": "string[]"
        },
        {
          "internalType": "string",
          "name": "information",
          "type": "string"
        }
      ],
      "name": "register",
      "outputs": [
        {
          "internalType": "address",
          "name": "",
          "type": "address"
        }
      ],
      "payable": false,
      "stateMutability": "nonpayable",
      "type": "function"
    },
    {
      "constant": false,
      "inputs": [
        {
          "internalType": "string",
          "name": "candidateName",
          "type": "string"
        }
      ],
      "name": "addCandidate",
      "outputs": [],
      "payable": false,
      "stateMutability": "nonpayable",
      "type": "function"
    },
    {
      "constant": true,
      "inputs": [
        {
          "internalType": "address",
          "name": "adr",
          "type": "address"
        }
      ],
      "name": "getVoterInformation",
      "outputs": [
        {
          "internalType": "string[]",
          "name": "",
          "type": "string[]"
        }
      ],
      "payable": false,
      "stateMutability": "view",
      "type": "function"
    },
    {
      "constant": true,
      "inputs": [],
      "name": "getAllVoterAddresses",
      "outputs": [
        {
          "internalType": "address[]",
          "name": "",
          "type": "address[]"
        }
      ],
      "payable": false,
      "stateMutability": "view",
      "type": "function"
    },
    {
      "constant": true,
      "inputs": [],
      "name": "getCandidateList",
      "outputs": [
        {
          "internalType": "string[]",
          "name": "",
          "type": "string[]"
        }
      ],
      "payable": false,
      "stateMutability": "view",
      "type": "function"
    }
  ],
  "bytecode": "0x60806040523480156200001157600080fd5b50604051620012203803806200122083398181016040526200003791908101906200031c565b81600460006101000a81548173ffffffffffffffffffffffffffffffffffffffff021916908373ffffffffffffffffffffffffffffffffffffffff16021790555080600290805190602001906200009092919062000099565b5050506200047e565b828054828255906000526020600020908101928215620000ed579160200282015b82811115620000ec578251829080519060200190620000db92919062000100565b5091602001919060010190620000ba565b5b509050620000fc919062000187565b5090565b828054600181600116156101000203166002900490600052602060002090601f016020900481019282601f106200014357805160ff191683800117855562000174565b8280016001018555821562000174579182015b828111156200017357825182559160200191906001019062000156565b5b509050620001839190620001b8565b5090565b620001b591905b80821115620001b15760008181620001a79190620001e0565b506001016200018e565b5090565b90565b620001dd91905b80821115620001d9576000816000905550600101620001bf565b5090565b90565b50805460018160011615610100020316600290046000825580601f1062000208575062000229565b601f016020900490600052602060002090810190620002289190620001b8565b5b50565b6000815190506200023d8162000464565b92915050565b600082601f8301126200025557600080fd5b81516200026c6200026682620003a4565b62000376565b9150818183526020840193506020810190508360005b83811015620002b657815186016200029b8882620002c0565b84526020840193506020830192505060018101905062000282565b5050505092915050565b600082601f830112620002d257600080fd5b8151620002e9620002e382620003cd565b62000376565b915080825260208301602083018583830111156200030657600080fd5b620003138382846200042e565b50505092915050565b600080604083850312156200033057600080fd5b600062000340858286016200022c565b925050602083015167ffffffffffffffff8111156200035e57600080fd5b6200036c8582860162000243565b9150509250929050565b6000604051905081810181811067ffffffffffffffff821117156200039a57600080fd5b8060405250919050565b600067ffffffffffffffff821115620003bc57600080fd5b602082029050602081019050919050565b600067ffffffffffffffff821115620003e557600080fd5b601f19601f8301169050602081019050919050565b600062000407826200040e565b9050919050565b600073ffffffffffffffffffffffffffffffffffffffff82169050919050565b60005b838110156200044e57808201518184015260208101905062000431565b838111156200045e576000848401525b50505050565b6200046f81620003fa565b81146200047b57600080fd5b50565b610d92806200048e6000396000f3fe608060405234801561001057600080fd5b50600436106100575760003560e01c80630a89e6d21461005c578063462e91ec1461008c578063cea04b00146100a8578063e78acc54146100c6578063fdbc4006146100f6575b600080fd5b610076600480360361007191908101906108ed565b610114565b6040516100839190610b56565b60405180910390f35b6100a660048036036100a19190810190610982565b61023f565b005b6100b0610281565b6040516100bd9190610b34565b60405180910390f35b6100e060048036036100db9190810190610916565b61030f565b6040516100ed9190610b19565b60405180910390f35b6100fe610475565b60405161010b9190610b56565b60405180910390f35b6060600360008373ffffffffffffffffffffffffffffffffffffffff1673ffffffffffffffffffffffffffffffffffffffff168152602001908152602001600020600101805480602002602001604051908101604052809291908181526020016000905b82821015610234578382906000526020600020018054600181600116156101000203166002900480601f0160208091040260200160405190810160405280929190818152602001828054600181600116156101000203166002900480156102205780601f106101f557610100808354040283529160200191610220565b820191906000526020600020905b81548152906001019060200180831161020357829003601f168201915b505050505081526020019060010190610178565b505050509050919050565b600281908060018154018082558091505090600182039060005260206000200160009091929091909150908051906020019061027c929190610589565b505050565b6060600180548060200260200160405190810160405280929190818152602001828054801561030557602002820191906000526020600020905b8160009054906101000a900473ffffffffffffffffffffffffffffffffffffffff1673ffffffffffffffffffffffffffffffffffffffff16815260200190600101908083116102bb575b5050505050905090565b6000610319610609565b60405180606001604052803373ffffffffffffffffffffffffffffffffffffffff16815260200185815260200161034f8561055e565b815250905080600360003373ffffffffffffffffffffffffffffffffffffffff1673ffffffffffffffffffffffffffffffffffffffff16815260200190815260200160002060008201518160000160006101000a81548173ffffffffffffffffffffffffffffffffffffffff021916908373ffffffffffffffffffffffffffffffffffffffff16021790555060208201518160010190805190602001906103f7929190610643565b506040820151816002015590505060013390806001815401808255809150509060018203906000526020600020016000909192909190916101000a81548173ffffffffffffffffffffffffffffffffffffffff021916908373ffffffffffffffffffffffffffffffffffffffff160217905550503391505092915050565b60606002805480602002602001604051908101604052809291908181526020016000905b82821015610555578382906000526020600020018054600181600116156101000203166002900480601f0160208091040260200160405190810160405280929190818152602001828054600181600116156101000203166002900480156105415780601f1061051657610100808354040283529160200191610541565b820191906000526020600020905b81548152906001019060200180831161052457829003601f168201915b505050505081526020019060010190610499565b50505050905090565b6000606082905060008151141561057b576000801b915050610584565b60208301519150505b919050565b828054600181600116156101000203166002900490600052602060002090601f016020900481019282601f106105ca57805160ff19168380011785556105f8565b828001600101855582156105f8579182015b828111156105f75782518255916020019190600101906105dc565b5b50905061060591906106a3565b5090565b6040518060600160405280600073ffffffffffffffffffffffffffffffffffffffff16815260200160608152602001600080191681525090565b828054828255906000526020600020908101928215610692579160200282015b828111156106915782518290805190602001906106819291906106c8565b5091602001919060010190610663565b5b50905061069f9190610748565b5090565b6106c591905b808211156106c15760008160009055506001016106a9565b5090565b90565b828054600181600116156101000203166002900490600052602060002090601f016020900481019282601f1061070957805160ff1916838001178555610737565b82800160010185558215610737579182015b8281111561073657825182559160200191906001019061071b565b5b50905061074491906106a3565b5090565b61077191905b8082111561076d57600081816107649190610774565b5060010161074e565b5090565b90565b50805460018160011615610100020316600290046000825580601f1061079a57506107b9565b601f0160209004906000526020600020908101906107b891906106a3565b5b50565b6000813590506107cb81610d38565b92915050565b600082601f8301126107e257600080fd5b81356107f56107f082610ba5565b610b78565b9150818183526020840193506020810190508360005b8381101561083b57813586016108218882610845565b84526020840193506020830192505060018101905061080b565b5050505092915050565b600082601f83011261085657600080fd5b813561086961086482610bcd565b610b78565b9150808252602083016020830185838301111561088557600080fd5b610890838284610ce5565b50505092915050565b600082601f8301126108aa57600080fd5b81356108bd6108b882610bf9565b610b78565b915080825260208301602083018583830111156108d957600080fd5b6108e4838284610ce5565b50505092915050565b6000602082840312156108ff57600080fd5b600061090d848285016107bc565b91505092915050565b6000806040838503121561092957600080fd5b600083013567ffffffffffffffff81111561094357600080fd5b61094f858286016107d1565b925050602083013567ffffffffffffffff81111561096c57600080fd5b61097885828601610899565b9150509250929050565b60006020828403121561099457600080fd5b600082013567ffffffffffffffff8111156109ae57600080fd5b6109ba84828501610899565b91505092915050565b60006109cf83836109ef565b60208301905092915050565b60006109e78383610ae0565b905092915050565b6109f881610cb3565b82525050565b610a0781610cb3565b82525050565b6000610a1882610c45565b610a228185610c80565b9350610a2d83610c25565b8060005b83811015610a5e578151610a4588826109c3565b9750610a5083610c66565b925050600181019050610a31565b5085935050505092915050565b6000610a7682610c50565b610a808185610c91565b935083602082028501610a9285610c35565b8060005b85811015610ace5784840389528151610aaf85826109db565b9450610aba83610c73565b925060208a01995050600181019050610a96565b50829750879550505050505092915050565b6000610aeb82610c5b565b610af58185610ca2565b9350610b05818560208601610cf4565b610b0e81610d27565b840191505092915050565b6000602082019050610b2e60008301846109fe565b92915050565b60006020820190508181036000830152610b4e8184610a0d565b905092915050565b60006020820190508181036000830152610b708184610a6b565b905092915050565b6000604051905081810181811067ffffffffffffffff82111715610b9b57600080fd5b8060405250919050565b600067ffffffffffffffff821115610bbc57600080fd5b602082029050602081019050919050565b600067ffffffffffffffff821115610be457600080fd5b601f19601f8301169050602081019050919050565b600067ffffffffffffffff821115610c1057600080fd5b601f19601f8301169050602081019050919050565b6000819050602082019050919050565b6000819050602082019050919050565b600081519050919050565b600081519050919050565b600081519050919050565b6000602082019050919050565b6000602082019050919050565b600082825260208201905092915050565b600082825260208201905092915050565b600082825260208201905092915050565b6000610cbe82610cc5565b9050919050565b600073ffffffffffffffffffffffffffffffffffffffff82169050919050565b82818337600083830152505050565b60005b83811015610d12578082015181840152602081019050610cf7565b83811115610d21576000848401525b50505050565b6000601f19601f8301169050919050565b610d4181610cb3565b8114610d4c57600080fd5b5056fea365627a7a72315820691bbe7f7c2b0cbfcac6729a447ab56e0371ae29175c179fb2b6f45d6d2a98e96c6578706572696d656e74616cf564736f6c63430005100040",
  "source": "pragma solidity ^ 0.5.0;\r\npragma experimental ABIEncoderV2;\r\ncontract Voting_Contract\r\n{\r\n    struct Voter\r\n    {\r\n        address voterAddress;\r\n        string[] votes;\r\n        bytes32 info;\r\n    }\r\n    mapping(string => int)  tempCandidate;\r\n    address[] voterAddressArray;\r\n    string[] candidateList;\r\n    mapping(address => Voter) voterList;\r\n    address Manager;\r\n    \r\n    constructor(address _manager, string[] memory _candidateList) public\r\n    {\r\n        Manager = _manager;\r\n        candidateList = _candidateList;\r\n    }\r\n    function register(string[] memory vote, string memory information) public returns(address)\r\n    {\r\n       Voter memory newVoter = Voter({voterAddress:msg.sender,votes:vote,info:stringToBytes32(information)});\r\n       voterList[msg.sender] = newVoter;\r\n       voterAddressArray.push(msg.sender);\r\n       return msg.sender;\r\n    }\r\n       \r\n    function addCandidate(string memory candidateName) public\r\n    {\r\n        candidateList.push(candidateName);\r\n    }\r\n    \r\n    function getVoterInformation(address adr) public view returns(string[] memory) \r\n    {\r\n        return voterList[adr].votes;\r\n    }\r\n    function getAllVoterAddresses() public view returns (address[] memory)\r\n    {\r\n        return voterAddressArray;\r\n    }\r\n    \r\n    function getCandidateList() public view returns(string[] memory) \r\n    {\r\n        return candidateList;\r\n    }\r\n  \r\n    /** \r\n     * @dev Convert string to bytes32.\r\n     * @param source String source\r\n     * @return result bytes32\r\n     * Notes: \r\n     * - You need to convert movieName from string to bytes32\r\n     * \r\n     * Lifted from Rating.sol used for the Movie Rating App in class\r\n     */\r\n    function stringToBytes32(string memory source) private pure returns (bytes32 result) {\r\n        bytes memory tempEmptyStringTest = bytes(source);\r\n        if (tempEmptyStringTest.length == 0) {\r\n            return 0x0;\r\n        }\r\n    \r\n        assembly {\r\n            result := mload(add(source, 32))\r\n        }\r\n    }\r\n}",
  "sourcePath": "C:/Users/Gabe/My Documents/Voting App/votingBackend/contracts/VotingContract.sol",
  "compiler": {
    "name": "solc",
    "version": "0.5.16+commit.9c3226ce.Emscripten.clang"
  },
  "schemaVersion": "3.3.1",
  "updatedAt": "2020-12-10T15:30:19.467Z",
  "networkType": "ethereum",
  "devdoc": {
    "methods": {}
  },
  "userdoc": {
    "methods": {}
  }
}